{
  "contractName": "Election",
  "abi": [
    {
      "inputs": [
        {
          "internalType": "string",
          "name": "_electionName",
          "type": "string"
        },
        {
          "internalType": "uint256",
          "name": "_endTime",
          "type": "uint256"
        },
        {
          "internalType": "uint256",
          "name": "_revealDuration",
          "type": "uint256"
        }
      ],
      "stateMutability": "nonpayable",
      "type": "constructor"
    },
    {
      "inputs": [],
      "name": "beginTime",
      "outputs": [
        {
          "internalType": "uint256",
          "name": "",
          "type": "uint256"
        }
      ],
      "stateMutability": "view",
      "type": "function",
      "constant": true
    },
    {
      "inputs": [
        {
          "internalType": "uint256",
          "name": "",
          "type": "uint256"
        }
      ],
      "name": "candidates",
      "outputs": [
        {
          "internalType": "bytes32",
          "name": "name",
          "type": "bytes32"
        },
        {
          "internalType": "uint256",
          "name": "voteCount",
          "type": "uint256"
        }
      ],
      "stateMutability": "view",
      "type": "function",
      "constant": true
    },
    {
      "inputs": [],
      "name": "committee",
      "outputs": [
        {
          "internalType": "address",
          "name": "",
          "type": "address"
        }
      ],
      "stateMutability": "view",
      "type": "function",
      "constant": true
    },
    {
      "inputs": [],
      "name": "electionName",
      "outputs": [
        {
          "internalType": "string",
          "name": "",
          "type": "string"
        }
      ],
      "stateMutability": "view",
      "type": "function",
      "constant": true
    },
    {
      "inputs": [],
      "name": "endTime",
      "outputs": [
        {
          "internalType": "uint256",
          "name": "",
          "type": "uint256"
        }
      ],
      "stateMutability": "view",
      "type": "function",
      "constant": true
    },
    {
      "inputs": [
        {
          "internalType": "uint256",
          "name": "",
          "type": "uint256"
        }
      ],
      "name": "pendings",
      "outputs": [
        {
          "internalType": "address",
          "name": "",
          "type": "address"
        }
      ],
      "stateMutability": "view",
      "type": "function",
      "constant": true
    },
    {
      "inputs": [],
      "name": "revealDuration",
      "outputs": [
        {
          "internalType": "uint256",
          "name": "",
          "type": "uint256"
        }
      ],
      "stateMutability": "view",
      "type": "function",
      "constant": true
    },
    {
      "inputs": [],
      "name": "revealTime",
      "outputs": [
        {
          "internalType": "uint256",
          "name": "",
          "type": "uint256"
        }
      ],
      "stateMutability": "view",
      "type": "function",
      "constant": true
    },
    {
      "inputs": [
        {
          "internalType": "address",
          "name": "",
          "type": "address"
        }
      ],
      "name": "voters",
      "outputs": [
        {
          "internalType": "bool",
          "name": "reg",
          "type": "bool"
        },
        {
          "internalType": "bool",
          "name": "voted",
          "type": "bool"
        }
      ],
      "stateMutability": "view",
      "type": "function",
      "constant": true
    },
    {
      "inputs": [],
      "name": "votesReceived",
      "outputs": [
        {
          "internalType": "uint256",
          "name": "",
          "type": "uint256"
        }
      ],
      "stateMutability": "view",
      "type": "function",
      "constant": true
    },
    {
      "inputs": [],
      "name": "votesRevealed",
      "outputs": [
        {
          "internalType": "uint256",
          "name": "",
          "type": "uint256"
        }
      ],
      "stateMutability": "view",
      "type": "function",
      "constant": true
    },
    {
      "inputs": [],
      "name": "getEndTime",
      "outputs": [
        {
          "internalType": "uint256",
          "name": "t",
          "type": "uint256"
        }
      ],
      "stateMutability": "view",
      "type": "function",
      "constant": true
    },
    {
      "inputs": [],
      "name": "getElectionName",
      "outputs": [
        {
          "internalType": "string",
          "name": "n",
          "type": "string"
        }
      ],
      "stateMutability": "view",
      "type": "function",
      "constant": true
    },
    {
      "inputs": [],
      "name": "getCommitteeAddr",
      "outputs": [
        {
          "internalType": "address",
          "name": "c",
          "type": "address"
        }
      ],
      "stateMutability": "view",
      "type": "function",
      "constant": true
    },
    {
      "inputs": [],
      "name": "getVotesRevealed",
      "outputs": [
        {
          "internalType": "uint256",
          "name": "v",
          "type": "uint256"
        }
      ],
      "stateMutability": "view",
      "type": "function",
      "constant": true
    },
    {
      "inputs": [
        {
          "internalType": "address",
          "name": "voter",
          "type": "address"
        }
      ],
      "name": "alreadyRegistered",
      "outputs": [
        {
          "internalType": "bool",
          "name": "ret",
          "type": "bool"
        }
      ],
      "stateMutability": "view",
      "type": "function",
      "constant": true
    },
    {
      "inputs": [],
      "name": "registerVoter",
      "outputs": [],
      "stateMutability": "nonpayable",
      "type": "function"
    },
    {
      "inputs": [],
      "name": "getStatus",
      "outputs": [
        {
          "internalType": "bool",
          "name": "status",
          "type": "bool"
        }
      ],
      "stateMutability": "view",
      "type": "function",
      "constant": true
    },
    {
      "inputs": [],
      "name": "getPending",
      "outputs": [
        {
          "internalType": "address[]",
          "name": "ps",
          "type": "address[]"
        }
      ],
      "stateMutability": "view",
      "type": "function",
      "constant": true
    },
    {
      "inputs": [
        {
          "internalType": "address",
          "name": "voter",
          "type": "address"
        }
      ],
      "name": "approveRegistration",
      "outputs": [],
      "stateMutability": "nonpayable",
      "type": "function"
    },
    {
      "inputs": [
        {
          "internalType": "bytes32",
          "name": "candidate",
          "type": "bytes32"
        }
      ],
      "name": "isCandidate",
      "outputs": [
        {
          "internalType": "bool",
          "name": "",
          "type": "bool"
        }
      ],
      "stateMutability": "view",
      "type": "function",
      "constant": true
    },
    {
      "inputs": [
        {
          "internalType": "bytes32",
          "name": "candidate",
          "type": "bytes32"
        }
      ],
      "name": "increment",
      "outputs": [],
      "stateMutability": "nonpayable",
      "type": "function"
    },
    {
      "inputs": [
        {
          "internalType": "bytes32",
          "name": "_hash",
          "type": "bytes32"
        }
      ],
      "name": "vote",
      "outputs": [],
      "stateMutability": "nonpayable",
      "type": "function"
    },
    {
      "inputs": [
        {
          "internalType": "bytes32",
          "name": "_candidate",
          "type": "bytes32"
        },
        {
          "internalType": "bytes32",
          "name": "_salt",
          "type": "bytes32"
        }
      ],
      "name": "revealVote",
      "outputs": [],
      "stateMutability": "nonpayable",
      "type": "function"
    },
    {
      "inputs": [],
      "name": "calcWinner",
      "outputs": [
        {
          "internalType": "uint256",
          "name": "winner_",
          "type": "uint256"
        }
      ],
      "stateMutability": "view",
      "type": "function",
      "constant": true
    },
    {
      "inputs": [],
      "name": "getName",
      "outputs": [
        {
          "internalType": "bytes32",
          "name": "winnerName_",
          "type": "bytes32"
        }
      ],
      "stateMutability": "view",
      "type": "function",
      "constant": true
    }
  ],
  "bytecode": "0x60806040523480156200001157600080fd5b50604051620026dd380380620026dd8339818101604052810190620000379190620003f9565b7307dce7e6b141cedf8816df0c22adf4b7a83f8b8a6000806101000a81548173ffffffffffffffffffffffffffffffffffffffff021916908373ffffffffffffffffffffffffffffffffffffffff160217905550426002819055508160038190555080600354620000a99190620004a3565b6004819055508260019081620000c091906200071f565b5060006040518060a001604052807f526f61726565204c696f6e00000000000000000000000000000000000000000081526020017f536869682d4675204368616e670000000000000000000000000000000000000081526020017f4a756e66656e672059616e67000000000000000000000000000000000000000081526020017f43686566204d696b65000000000000000000000000000000000000000000000081526020017f4a6f686e204a6179000000000000000000000000000000000000000000000000815250905060005b60058110156200022057600a6040518060400160405280848460058110620001bc57620001bb62000806565b5b6020020151815260200160008152509080600181540180825580915050600190039060005260206000209060020201600090919091909150600082015181600001556020820151816001015550508080620002179062000835565b9150506200018f565b505050505062000882565b6000604051905090565b600080fd5b600080fd5b600080fd5b600080fd5b6000601f19601f8301169050919050565b7f4e487b7100000000000000000000000000000000000000000000000000000000600052604160045260246000fd5b620002948262000249565b810181811067ffffffffffffffff82111715620002b657620002b56200025a565b5b80604052505050565b6000620002cb6200022b565b9050620002d9828262000289565b919050565b600067ffffffffffffffff821115620002fc57620002fb6200025a565b5b620003078262000249565b9050602081019050919050565b60005b838110156200033457808201518184015260208101905062000317565b60008484015250505050565b6000620003576200035184620002de565b620002bf565b90508281526020810184848401111562000376576200037562000244565b5b6200038384828562000314565b509392505050565b600082601f830112620003a357620003a26200023f565b5b8151620003b584826020860162000340565b91505092915050565b6000819050919050565b620003d381620003be565b8114620003df57600080fd5b50565b600081519050620003f381620003c8565b92915050565b60008060006060848603121562000415576200041462000235565b5b600084015167ffffffffffffffff8111156200043657620004356200023a565b5b62000444868287016200038b565b93505060206200045786828701620003e2565b92505060406200046a86828701620003e2565b9150509250925092565b7f4e487b7100000000000000000000000000000000000000000000000000000000600052601160045260246000fd5b6000620004b082620003be565b9150620004bd83620003be565b9250828201905080821115620004d857620004d762000474565b5b92915050565b600081519050919050565b7f4e487b7100000000000000000000000000000000000000000000000000000000600052602260045260246000fd5b600060028204905060018216806200053157607f821691505b602082108103620005475762000546620004e9565b5b50919050565b60008190508160005260206000209050919050565b60006020601f8301049050919050565b600082821b905092915050565b600060088302620005b17fffffffffffffffffffffffffffffffffffffffffffffffffffffffffffffffff8262000572565b620005bd868362000572565b95508019841693508086168417925050509392505050565b6000819050919050565b600062000600620005fa620005f484620003be565b620005d5565b620003be565b9050919050565b6000819050919050565b6200061c83620005df565b620006346200062b8262000607565b8484546200057f565b825550505050565b600090565b6200064b6200063c565b6200065881848462000611565b505050565b5b8181101562000680576200067460008262000641565b6001810190506200065e565b5050565b601f821115620006cf5762000699816200054d565b620006a48462000562565b81016020851015620006b4578190505b620006cc620006c38562000562565b8301826200065d565b50505b505050565b600082821c905092915050565b6000620006f460001984600802620006d4565b1980831691505092915050565b60006200070f8383620006e1565b9150826002028217905092915050565b6200072a82620004de565b67ffffffffffffffff8111156200074657620007456200025a565b5b62000752825462000518565b6200075f82828562000684565b600060209050601f83116001811462000797576000841562000782578287015190505b6200078e858262000701565b865550620007fe565b601f198416620007a7866200054d565b60005b82811015620007d157848901518255600182019150602085019450602081019050620007aa565b86831015620007f15784890151620007ed601f891682620006e1565b8355505b6001600288020188555050505b505050505050565b7f4e487b7100000000000000000000000000000000000000000000000000000000600052603260045260246000fd5b60006200084282620003be565b91507fffffffffffffffffffffffffffffffffffffffffffffffffffffffffffffffff820362000877576200087662000474565b5b600182019050919050565b611e4b80620008926000396000f3fe608060405234801561001057600080fd5b506004361061018e5760003560e01c806376fdcb70116100de578063a3ec138d11610097578063ba829d7111610071578063ba829d711461047b578063d864e74014610499578063ecb617d9146104b7578063ee8aeaa2146104c15761018e565b8063a3ec138d146103fe578063a69beaba1461042f578063b89694c61461044b5761018e565b806376fdcb70146103385780637965df391461035657806382041ba41461038657806385e8e7a7146103a457806388149fb9146103c2578063886a6de1146103e05761018e565b80633a6af7991161014b5780634e69d560116101255780634e69d560146102b05780635179fc49146102ce57806356e49d61146102ea578063713fda971461031a5761018e565b80633a6af7991461025857806340c443b314610276578063439f5ac2146102925761018e565b806311ae9ed21461019357806317d7de7c146101b15780632a183003146101cf57806330e7a79c146101eb5780633197cbb6146102095780633477ee2e14610227575b600080fd5b61019b6104df565b6040516101a89190611360565b60405180910390f35b6101b96105fb565b6040516101c6919061139b565b60405180910390f35b6101e960048036038101906101e491906113e7565b61062f565b005b6101f3610918565b60405161020091906114b7565b60405180910390f35b6102116109aa565b60405161021e91906114f2565b60405180910390f35b610241600480360381019061023c9190611539565b6109b0565b60405161024f929190611566565b60405180910390f35b6102606109e4565b60405161026d91906114f2565b60405180910390f35b610290600480360381019061028b919061158f565b610aac565b005b61029a610b3d565b6040516102a791906114f2565b60405180910390f35b6102b8610b47565b6040516102c591906115d7565b60405180910390f35b6102e860048036038101906102e3919061161e565b610b9e565b005b61030460048036038101906102ff919061161e565b610d1a565b60405161031191906115d7565b60405180910390f35b610322610dc8565b60405161032f91906114f2565b60405180910390f35b610340610dce565b60405161034d919061165a565b60405180910390f35b610370600480360381019061036b9190611539565b610df7565b60405161037d919061165a565b60405180910390f35b61038e610e36565b60405161039b91906114f2565b60405180910390f35b6103ac610e3c565b6040516103b991906114b7565b60405180910390f35b6103ca610eca565b6040516103d791906114f2565b60405180910390f35b6103e8610ed0565b6040516103f591906114f2565b60405180910390f35b6104186004803603810190610413919061161e565b610ed6565b604051610426929190611675565b60405180910390f35b6104496004803603810190610444919061158f565b610f14565b005b6104656004803603810190610460919061158f565b6110ca565b60405161047291906115d7565b60405180910390f35b610483611133565b60405161049091906114f2565b60405180910390f35b6104a1611139565b6040516104ae919061165a565b60405180910390f35b6104bf61115d565b005b6104c9611266565b6040516104d691906114f2565b60405180910390f35b606060008054906101000a900473ffffffffffffffffffffffffffffffffffffffff1673ffffffffffffffffffffffffffffffffffffffff163373ffffffffffffffffffffffffffffffffffffffff161461056f576040517f08c379a0000000000000000000000000000000000000000000000000000000008152600401610566906116ea565b60405180910390fd5b600b8054806020026020016040519081016040528092919081815260200182805480156105f157602002820191906000526020600020905b8160009054906101000a900473ffffffffffffffffffffffffffffffffffffffff1673ffffffffffffffffffffffffffffffffffffffff16815260200190600101908083116105a7575b5050505050905090565b6000600a6106076109e4565b815481106106185761061761170a565b5b906000526020600020906002020160000154905090565b6000600c60003373ffffffffffffffffffffffffffffffffffffffff1673ffffffffffffffffffffffffffffffffffffffff1681526020019081526020016000209050600354421015801561068657506004544211155b6106c5576040517f08c379a00000000000000000000000000000000000000000000000000000000081526004016106bc90611785565b60405180910390fd5b8060000160019054906101000a900460ff16610716576040517f08c379a000000000000000000000000000000000000000000000000000000000815260040161070d906117f1565b60405180910390fd5b600860003373ffffffffffffffffffffffffffffffffffffffff1673ffffffffffffffffffffffffffffffffffffffff16815260200190815260200160002060009054906101000a900460ff16156107a3576040517f08c379a000000000000000000000000000000000000000000000000000000000815260040161079a9061185d565b60405180910390fd5b6107ac836110ca565b6107eb576040517f08c379a00000000000000000000000000000000000000000000000000000000081526004016107e2906118c9565b60405180910390fd5b600083836040516020016108009291906118e9565b604051602081830303815290604052805190602001209050600660003373ffffffffffffffffffffffffffffffffffffffff1673ffffffffffffffffffffffffffffffffffffffff168152602001908152602001600020548114610899576040517f08c379a000000000000000000000000000000000000000000000000000000000815260040161089090611984565b60405180910390fd5b6108a284610aac565b6001600860003373ffffffffffffffffffffffffffffffffffffffff1673ffffffffffffffffffffffffffffffffffffffff16815260200190815260200160002060006101000a81548160ff0219169083151502179055506009600081548092919061090d906119d3565b919050555050505050565b60606001805461092790611a4a565b80601f016020809104026020016040519081016040528092919081815260200182805461095390611a4a565b80156109a05780601f10610975576101008083540402835291602001916109a0565b820191906000526020600020905b81548152906001019060200180831161098357829003601f168201915b5050505050905090565b60035481565b600a81815481106109c057600080fd5b90600052602060002090600202016000915090508060000154908060010154905082565b60006004544211610a2a576040517f08c379a0000000000000000000000000000000000000000000000000000000008152600401610a2190611ac7565b60405180910390fd5b6000805b600a80549050811015610aa75781600a8281548110610a5057610a4f61170a565b5b9060005260206000209060020201600101541115610a9457600a8181548110610a7c57610a7b61170a565b5b90600052602060002090600202016001015491508092505b8080610a9f906119d3565b915050610a2e565b505090565b60005b600a80549050811015610b395781600a8281548110610ad157610ad061170a565b5b90600052602060002090600202016000015403610b26576001600a8281548110610afe57610afd61170a565b5b90600052602060002090600202016001016000828254610b1e9190611ae7565b925050819055505b8080610b31906119d3565b915050610aaf565b5050565b6000600354905090565b6000600c60003373ffffffffffffffffffffffffffffffffffffffff1673ffffffffffffffffffffffffffffffffffffffff16815260200190815260200160002060000160009054906101000a900460ff16905090565b60008054906101000a900473ffffffffffffffffffffffffffffffffffffffff1673ffffffffffffffffffffffffffffffffffffffff163373ffffffffffffffffffffffffffffffffffffffff1614610c2c576040517f08c379a0000000000000000000000000000000000000000000000000000000008152600401610c2390611b8d565b60405180910390fd5b600c60008273ffffffffffffffffffffffffffffffffffffffff1673ffffffffffffffffffffffffffffffffffffffff16815260200190815260200160002060000160019054906101000a900460ff1615610cbc576040517f08c379a0000000000000000000000000000000000000000000000000000000008152600401610cb390611bf9565b60405180910390fd5b6001600c60008373ffffffffffffffffffffffffffffffffffffffff1673ffffffffffffffffffffffffffffffffffffffff16815260200190815260200160002060000160006101000a81548160ff02191690831515021790555050565b600080600090505b600b80549050811015610dbd578273ffffffffffffffffffffffffffffffffffffffff16600b8281548110610d5a57610d5961170a565b5b9060005260206000200160009054906101000a900473ffffffffffffffffffffffffffffffffffffffff1673ffffffffffffffffffffffffffffffffffffffff1603610daa576001915050610dc3565b8080610db5906119d3565b915050610d22565b50600090505b919050565b60075481565b60008060009054906101000a900473ffffffffffffffffffffffffffffffffffffffff16905090565b600b8181548110610e0757600080fd5b906000526020600020016000915054906101000a900473ffffffffffffffffffffffffffffffffffffffff1681565b60095481565b60018054610e4990611a4a565b80601f0160208091040260200160405190810160405280929190818152602001828054610e7590611a4a565b8015610ec25780601f10610e9757610100808354040283529160200191610ec2565b820191906000526020600020905b815481529060010190602001808311610ea557829003601f168201915b505050505081565b60025481565b60055481565b600c6020528060005260406000206000915090508060000160009054906101000a900460ff16908060000160019054906101000a900460ff16905082565b6000600c60003373ffffffffffffffffffffffffffffffffffffffff1673ffffffffffffffffffffffffffffffffffffffff16815260200190815260200160002090508060000160019054906101000a900460ff1615610fa9576040517f08c379a0000000000000000000000000000000000000000000000000000000008152600401610fa090611c8b565b60405180910390fd5b8060000160009054906101000a900460ff16610ffa576040517f08c379a0000000000000000000000000000000000000000000000000000000008152600401610ff190611d1d565b60405180910390fd5b600354421115801561100e57506002544210155b61104d576040517f08c379a000000000000000000000000000000000000000000000000000000000815260040161104490611d89565b60405180910390fd5b60018160000160016101000a81548160ff02191690831515021790555081600660003373ffffffffffffffffffffffffffffffffffffffff1673ffffffffffffffffffffffffffffffffffffffff16815260200190815260200160002081905550600760008154809291906110c1906119d3565b91905055505050565b600080600090505b600a805490508110156111285782600a82815481106110f4576110f361170a565b5b9060005260206000209060020201600001540361111557600191505061112e565b8080611120906119d3565b9150506110d2565b50600090505b919050565b60045481565b60008054906101000a900473ffffffffffffffffffffffffffffffffffffffff1681565b61116633610d1a565b156111a6576040517f08c379a000000000000000000000000000000000000000000000000000000000815260040161119d90611df5565b60405180910390fd5b600b339080600181540180825580915050600190039060005260206000200160009091909190916101000a81548173ffffffffffffffffffffffffffffffffffffffff021916908373ffffffffffffffffffffffffffffffffffffffff1602179055506000600c60003373ffffffffffffffffffffffffffffffffffffffff1673ffffffffffffffffffffffffffffffffffffffff16815260200190815260200160002060000160006101000a81548160ff021916908315150217905550565b6000600954905090565b600081519050919050565b600082825260208201905092915050565b6000819050602082019050919050565b600073ffffffffffffffffffffffffffffffffffffffff82169050919050565b60006112c78261129c565b9050919050565b6112d7816112bc565b82525050565b60006112e983836112ce565b60208301905092915050565b6000602082019050919050565b600061130d82611270565b611317818561127b565b93506113228361128c565b8060005b8381101561135357815161133a88826112dd565b9750611345836112f5565b925050600181019050611326565b5085935050505092915050565b6000602082019050818103600083015261137a8184611302565b905092915050565b6000819050919050565b61139581611382565b82525050565b60006020820190506113b0600083018461138c565b92915050565b600080fd5b6113c481611382565b81146113cf57600080fd5b50565b6000813590506113e1816113bb565b92915050565b600080604083850312156113fe576113fd6113b6565b5b600061140c858286016113d2565b925050602061141d858286016113d2565b9150509250929050565b600081519050919050565b600082825260208201905092915050565b60005b83811015611461578082015181840152602081019050611446565b60008484015250505050565b6000601f19601f8301169050919050565b600061148982611427565b6114938185611432565b93506114a3818560208601611443565b6114ac8161146d565b840191505092915050565b600060208201905081810360008301526114d1818461147e565b905092915050565b6000819050919050565b6114ec816114d9565b82525050565b600060208201905061150760008301846114e3565b92915050565b611516816114d9565b811461152157600080fd5b50565b6000813590506115338161150d565b92915050565b60006020828403121561154f5761154e6113b6565b5b600061155d84828501611524565b91505092915050565b600060408201905061157b600083018561138c565b61158860208301846114e3565b9392505050565b6000602082840312156115a5576115a46113b6565b5b60006115b3848285016113d2565b91505092915050565b60008115159050919050565b6115d1816115bc565b82525050565b60006020820190506115ec60008301846115c8565b92915050565b6115fb816112bc565b811461160657600080fd5b50565b600081359050611618816115f2565b92915050565b600060208284031215611634576116336113b6565b5b600061164284828501611609565b91505092915050565b611654816112bc565b82525050565b600060208201905061166f600083018461164b565b92915050565b600060408201905061168a60008301856115c8565b61169760208301846115c8565b9392505050565b7f4f6e6c7920636f6d6d697474652063616e20766965772070656e64696e670000600082015250565b60006116d4601e83611432565b91506116df8261169e565b602082019050919050565b60006020820190508181036000830152611703816116c7565b9050919050565b7f4e487b7100000000000000000000000000000000000000000000000000000000600052603260045260246000fd5b7f54686973206973206e6f74207468652072657665616c20706572696f64000000600082015250565b600061176f601d83611432565b915061177a82611739565b602082019050919050565b6000602082019050818103600083015261179e81611762565b9050919050565b7f566f74657220646964206e6f7420766f74650000000000000000000000000000600082015250565b60006117db601283611432565b91506117e6826117a5565b602082019050919050565b6000602082019050818103600083015261180a816117ce565b9050919050565b7f566f74652068617320616c7265616479206265656e2072657665616c65640000600082015250565b6000611847601e83611432565b915061185282611811565b602082019050919050565b600060208201905081810360008301526118768161183a565b9050919050565b7f4e6f7420612076616c69642063616e6469646174650000000000000000000000600082015250565b60006118b3601583611432565b91506118be8261187d565b602082019050919050565b600060208201905081810360008301526118e2816118a6565b9050919050565b60006040820190506118fe600083018561138c565b61190b602083018461138c565b9392505050565b7f766f74652072657665616c656420646f6573206e6f74206d617463682073656360008201527f72657420766f7465000000000000000000000000000000000000000000000000602082015250565b600061196e602883611432565b915061197982611912565b604082019050919050565b6000602082019050818103600083015261199d81611961565b9050919050565b7f4e487b7100000000000000000000000000000000000000000000000000000000600052601160045260246000fd5b60006119de826114d9565b91507fffffffffffffffffffffffffffffffffffffffffffffffffffffffffffffffff8203611a1057611a0f6119a4565b5b600182019050919050565b7f4e487b7100000000000000000000000000000000000000000000000000000000600052602260045260246000fd5b60006002820490506001821680611a6257607f821691505b602082108103611a7557611a74611a1b565b5b50919050565b7f52657665616c20706572696f6420686173206e6f742070617373656400000000600082015250565b6000611ab1601c83611432565b9150611abc82611a7b565b602082019050919050565b60006020820190508181036000830152611ae081611aa4565b9050919050565b6000611af2826114d9565b9150611afd836114d9565b9250828201905080821115611b1557611b146119a4565b5b92915050565b7f4f6e6c7920636f6d6d69747465652063616e20617070726f766520726567697360008201527f74726174696f6e73000000000000000000000000000000000000000000000000602082015250565b6000611b77602883611432565b9150611b8282611b1b565b604082019050919050565b60006020820190508181036000830152611ba681611b6a565b9050919050565b7f566f7465722068617320616c726561647920766f746564000000000000000000600082015250565b6000611be3601783611432565b9150611bee82611bad565b602082019050919050565b60006020820190508181036000830152611c1281611bd6565b9050919050565b7f596f7520616c726561647920766f74656420696e207468697320656c6563746960008201527f6f6e000000000000000000000000000000000000000000000000000000000000602082015250565b6000611c75602283611432565b9150611c8082611c19565b604082019050919050565b60006020820190508181036000830152611ca481611c68565b9050919050565b7f596f752068617665206e6f74206265656e20617070726f76656420746f20766f60008201527f7465000000000000000000000000000000000000000000000000000000000000602082015250565b6000611d07602283611432565b9150611d1282611cab565b604082019050919050565b60006020820190508181036000830152611d3681611cfa565b9050919050565b7f456c656374696f6e204f76657200000000000000000000000000000000000000600082015250565b6000611d73600d83611432565b9150611d7e82611d3d565b602082019050919050565b60006020820190508181036000830152611da281611d66565b9050919050565b7f416c7265616479207375626d697474656420726567697374726174696f6e0000600082015250565b6000611ddf601e83611432565b9150611dea82611da9565b602082019050919050565b60006020820190508181036000830152611e0e81611dd2565b905091905056fea2646970667358221220f07abc8454e25cbac8f011d23a604906ccecf00de4135ab48cd1e83ec179194064736f6c63430008110033",
  "immutableReferences": {},
  "source": "// SPDX-License-Identifier: GPL-3.0\n\npragma solidity ^0.8.0;\n\ncontract Election {\n\n    struct Candidate {\n        bytes32 name;\n        uint256 voteCount;\n    }\n\n    struct Voter { \n        bool reg;\n        bool voted;\n        // uint256 vote;\n    }\n\n    address public committee;\n    string public electionName;\n\n    uint256 public beginTime;\n    uint256 public endTime;\n    uint256 public revealTime;\n    uint256 public revealDuration;\n\n    mapping (address => bytes32) secretVotes;\n    uint public votesReceived;\n    mapping (address => bool) voteRevealed;\n    uint public votesRevealed;\n\n    Candidate[] public candidates;\n    address[] public pendings;\n    mapping(address => Voter) public voters;\n\n    // event Voted(uint256 vote);\n\n    constructor(string memory _electionName, uint256 _endTime, uint256 _revealDuration) {\n        // committee = msg.sender;\n        // hard code address for debugging\n        committee = 0x07Dce7e6B141cEDf8816dF0C22Adf4b7A83f8b8A;\n        beginTime = block.timestamp;\n        endTime = _endTime;\n        revealTime = endTime + _revealDuration;\n        electionName = _electionName;\n\n        // hard code candidates\n        bytes32[5] memory candidateNames = [bytes32(\"Roaree Lion\"), bytes32(\"Shih-Fu Chang\"), bytes32(\"Junfeng Yang\"), bytes32(\"Chef Mike\"), bytes32(\"John Jay\")];\n\n        for (uint i = 0; i < candidateNames.length; i++) {\n            candidates.push(Candidate({\n                name: candidateNames[i],\n                voteCount: 0\n            }));\n        }\n    }\n\n    function getEndTime() public view returns(uint256 t) {\n        return endTime;\n    }\n\n    function getElectionName() public view returns(string memory n) {\n        return electionName;\n    }\n\n    function getCommitteeAddr() public view returns(address c) {\n        return committee;\n    }\n\n    function getVotesRevealed() public view returns(uint256 v) {\n        return votesRevealed;\n    }\n\n    function alreadyRegistered(address voter) public view returns(bool ret) {\n        for (uint i = 0; i < pendings.length; i++) {\n            if (pendings[i] == voter) {\n                return true;\n            }\n        }\n        return false;\n    }\n\n    // submit registration for an election\n    // done by voter\n    function registerVoter() external {\n        require(!alreadyRegistered(msg.sender), \"Already submitted registration\");\n        pendings.push(msg.sender);\n        voters[msg.sender].reg = false;\n    }\n\n    // get voter registration status\n    function getStatus() public view returns (bool status) {\n        return voters[msg.sender].reg;\n    }\n\n    // get pending registrations\n    // only called by committee\n    function getPending() public view returns (address[] memory ps) {\n        require(msg.sender == committee, \"Only committe can view pending\");\n        return pendings;\n    }\n\n    // approve a voter registration\n    function approveRegistration(address voter) external {\n        require(msg.sender == committee, \"Only committee can approve registrations\");\n        require(!voters[voter].voted, \"Voter has already voted\");\n        voters[voter].reg = true;\n    }\n\n    // confirm choice is a registered candidate\n    function isCandidate(bytes32 candidate) public view returns (bool) {\n        for (uint i = 0; i < candidates.length; i++) {\n            if (candidates[i].name == candidate) {\n                return true;\n            }\n        }\n        return false;\n    }\n\n    // increase candidate vote count\n    function increment(bytes32 candidate) public {\n        for (uint i = 0; i < candidates.length; i++) {\n            if (candidates[i].name == candidate) {\n                candidates[i].voteCount += 1;\n            }\n        }\n    }\n\n    // submit vote during election time period\n    function vote(bytes32 _hash) external {\n        Voter storage v = voters[msg.sender];\n        require(!v.voted, \"You already voted in this election\");\n        require(v.reg, \"You have not been approved to vote\");\n        require(block.timestamp <= endTime && block.timestamp >= beginTime, \"Election Over\");\n\n        v.voted = true;\n        secretVotes[msg.sender] = _hash;\n        votesReceived++;\n    }\n\n    // reveal vote during reveal period\n    function revealVote(bytes32 _candidate, bytes32 _salt) external {\n        Voter storage v = voters[msg.sender];\n        require(block.timestamp >= endTime && block.timestamp <= revealTime, \"This is not the reveal period\");\n        require(v.voted, \"Voter did not vote\");\n        require(!voteRevealed[msg.sender], \"Vote has already been revealed\");\n        require(isCandidate(_candidate), \"Not a valid candidate\");\n\n        bytes32 voteHash = keccak256(abi.encode(_candidate, _salt));\n\n        require(voteHash == secretVotes[msg.sender], \"vote revealed does not match secret vote\");\n\n        // candidates[_candidate].voteCount += 1;\n        increment(_candidate);\n        voteRevealed[msg.sender] = true;\n        votesRevealed++;\n    }\n\n    // calculates winner\n    function calcWinner() public view\n            returns (uint256 winner_)\n    {\n        require(block.timestamp > revealTime, \"Reveal period has not passed\");\n        uint winningVoteCount = 0;\n        for (uint c = 0; c < candidates.length; c++) {\n            if (candidates[c].voteCount > winningVoteCount) {\n                winningVoteCount = candidates[c].voteCount;\n                winner_ = c;\n            }\n        }\n    }\n\n    function getName() external view\n            returns (bytes32 winnerName_)\n    {\n        winnerName_ = candidates[calcWinner()].name;\n    }\n}",
  "sourcePath": "/Users/kimboly/dev/columbia/web3final/UniVote-KT/contracts/Election.sol",
  "compiler": {
    "name": "solc",
    "version": "0.8.17+commit.8df45f5f.Emscripten.clang"
  },
  "schemaVersion": "3.4.11",
  "updatedAt": "2023-01-25T04:28:56.760Z",
  "networkType": "ethereum",
  "devdoc": {
    "kind": "dev",
    "methods": {},
    "version": 1
  },
  "userdoc": {
    "kind": "user",
    "methods": {},
    "version": 1
  }
}