{
  "contractName": "Election",
  "abi": [
    {
      "inputs": [
        {
          "internalType": "string",
          "name": "_electionName",
          "type": "string"
        },
        {
          "internalType": "uint256",
          "name": "_endTime",
          "type": "uint256"
        },
        {
          "internalType": "uint256",
          "name": "_revealDuration",
          "type": "uint256"
        }
      ],
      "stateMutability": "nonpayable",
      "type": "constructor"
    },
    {
      "inputs": [],
      "name": "beginTime",
      "outputs": [
        {
          "internalType": "uint256",
          "name": "",
          "type": "uint256"
        }
      ],
      "stateMutability": "view",
      "type": "function",
      "constant": true
    },
    {
      "inputs": [
        {
          "internalType": "uint256",
          "name": "",
          "type": "uint256"
        }
      ],
      "name": "candidates",
      "outputs": [
        {
          "internalType": "bytes32",
          "name": "name",
          "type": "bytes32"
        },
        {
          "internalType": "uint256",
          "name": "voteCount",
          "type": "uint256"
        }
      ],
      "stateMutability": "view",
      "type": "function",
      "constant": true
    },
    {
      "inputs": [],
      "name": "committee",
      "outputs": [
        {
          "internalType": "address",
          "name": "",
          "type": "address"
        }
      ],
      "stateMutability": "view",
      "type": "function",
      "constant": true
    },
    {
      "inputs": [],
      "name": "electionName",
      "outputs": [
        {
          "internalType": "string",
          "name": "",
          "type": "string"
        }
      ],
      "stateMutability": "view",
      "type": "function",
      "constant": true
    },
    {
      "inputs": [],
      "name": "endTime",
      "outputs": [
        {
          "internalType": "uint256",
          "name": "",
          "type": "uint256"
        }
      ],
      "stateMutability": "view",
      "type": "function",
      "constant": true
    },
    {
      "inputs": [
        {
          "internalType": "uint256",
          "name": "",
          "type": "uint256"
        }
      ],
      "name": "pendings",
      "outputs": [
        {
          "internalType": "address",
          "name": "",
          "type": "address"
        }
      ],
      "stateMutability": "view",
      "type": "function",
      "constant": true
    },
    {
      "inputs": [],
      "name": "revealDuration",
      "outputs": [
        {
          "internalType": "uint256",
          "name": "",
          "type": "uint256"
        }
      ],
      "stateMutability": "view",
      "type": "function",
      "constant": true
    },
    {
      "inputs": [],
      "name": "revealTime",
      "outputs": [
        {
          "internalType": "uint256",
          "name": "",
          "type": "uint256"
        }
      ],
      "stateMutability": "view",
      "type": "function",
      "constant": true
    },
    {
      "inputs": [
        {
          "internalType": "address",
          "name": "",
          "type": "address"
        }
      ],
      "name": "voters",
      "outputs": [
        {
          "internalType": "bool",
          "name": "reg",
          "type": "bool"
        },
        {
          "internalType": "bool",
          "name": "voted",
          "type": "bool"
        }
      ],
      "stateMutability": "view",
      "type": "function",
      "constant": true
    },
    {
      "inputs": [],
      "name": "votesReceived",
      "outputs": [
        {
          "internalType": "uint256",
          "name": "",
          "type": "uint256"
        }
      ],
      "stateMutability": "view",
      "type": "function",
      "constant": true
    },
    {
      "inputs": [],
      "name": "votesRevealed",
      "outputs": [
        {
          "internalType": "uint256",
          "name": "",
          "type": "uint256"
        }
      ],
      "stateMutability": "view",
      "type": "function",
      "constant": true
    },
    {
      "inputs": [],
      "name": "getEndTime",
      "outputs": [
        {
          "internalType": "uint256",
          "name": "t",
          "type": "uint256"
        }
      ],
      "stateMutability": "view",
      "type": "function",
      "constant": true
    },
    {
      "inputs": [],
      "name": "getRevealTime",
      "outputs": [
        {
          "internalType": "uint256",
          "name": "t",
          "type": "uint256"
        }
      ],
      "stateMutability": "view",
      "type": "function",
      "constant": true
    },
    {
      "inputs": [],
      "name": "getElectionName",
      "outputs": [
        {
          "internalType": "string",
          "name": "n",
          "type": "string"
        }
      ],
      "stateMutability": "view",
      "type": "function",
      "constant": true
    },
    {
      "inputs": [],
      "name": "getCommitteeAddr",
      "outputs": [
        {
          "internalType": "address",
          "name": "c",
          "type": "address"
        }
      ],
      "stateMutability": "view",
      "type": "function",
      "constant": true
    },
    {
      "inputs": [],
      "name": "getVotesRevealed",
      "outputs": [
        {
          "internalType": "uint256",
          "name": "v",
          "type": "uint256"
        }
      ],
      "stateMutability": "view",
      "type": "function",
      "constant": true
    },
    {
      "inputs": [
        {
          "internalType": "address",
          "name": "voter",
          "type": "address"
        }
      ],
      "name": "alreadyRegistered",
      "outputs": [
        {
          "internalType": "bool",
          "name": "ret",
          "type": "bool"
        }
      ],
      "stateMutability": "view",
      "type": "function",
      "constant": true
    },
    {
      "inputs": [],
      "name": "registerVoter",
      "outputs": [],
      "stateMutability": "nonpayable",
      "type": "function"
    },
    {
      "inputs": [],
      "name": "getStatus",
      "outputs": [
        {
          "internalType": "bool",
          "name": "status",
          "type": "bool"
        }
      ],
      "stateMutability": "view",
      "type": "function",
      "constant": true
    },
    {
      "inputs": [],
      "name": "getPending",
      "outputs": [
        {
          "internalType": "address[]",
          "name": "ps",
          "type": "address[]"
        }
      ],
      "stateMutability": "view",
      "type": "function",
      "constant": true
    },
    {
      "inputs": [
        {
          "internalType": "address",
          "name": "voter",
          "type": "address"
        }
      ],
      "name": "approveRegistration",
      "outputs": [],
      "stateMutability": "nonpayable",
      "type": "function"
    },
    {
      "inputs": [
        {
          "internalType": "bytes32",
          "name": "candidate",
          "type": "bytes32"
        }
      ],
      "name": "isCandidate",
      "outputs": [
        {
          "internalType": "bool",
          "name": "",
          "type": "bool"
        }
      ],
      "stateMutability": "view",
      "type": "function",
      "constant": true
    },
    {
      "inputs": [
        {
          "internalType": "bytes32",
          "name": "candidate",
          "type": "bytes32"
        }
      ],
      "name": "increment",
      "outputs": [],
      "stateMutability": "nonpayable",
      "type": "function"
    },
    {
      "inputs": [
        {
          "internalType": "bytes32",
          "name": "_hash",
          "type": "bytes32"
        }
      ],
      "name": "vote",
      "outputs": [],
      "stateMutability": "nonpayable",
      "type": "function"
    },
    {
      "inputs": [
        {
          "internalType": "bytes32",
          "name": "_candidate",
          "type": "bytes32"
        },
        {
          "internalType": "bytes32",
          "name": "_salt",
          "type": "bytes32"
        }
      ],
      "name": "revealVote",
      "outputs": [],
      "stateMutability": "nonpayable",
      "type": "function"
    },
    {
      "inputs": [],
      "name": "calcWinner",
      "outputs": [
        {
          "internalType": "uint256",
          "name": "winner_",
          "type": "uint256"
        }
      ],
      "stateMutability": "view",
      "type": "function",
      "constant": true
    },
    {
      "inputs": [],
      "name": "getName",
      "outputs": [
        {
          "internalType": "bytes32",
          "name": "winnerName_",
          "type": "bytes32"
        }
      ],
      "stateMutability": "view",
      "type": "function",
      "constant": true
    }
  ],
  "bytecode": "0x60806040523480156200001157600080fd5b5060405162002660380380620026608339818101604052810190620000379190620003e5565b336000806101000a81548173ffffffffffffffffffffffffffffffffffffffff021916908373ffffffffffffffffffffffffffffffffffffffff1602179055504260028190555081600381905550806003546200009591906200048f565b6004819055508260019081620000ac91906200070b565b5060006040518060a001604052807f526f61726565204c696f6e00000000000000000000000000000000000000000081526020017f536869682d4675204368616e670000000000000000000000000000000000000081526020017f4a756e66656e672059616e67000000000000000000000000000000000000000081526020017f43686566204d696b65000000000000000000000000000000000000000000000081526020017f4a6f686e204a6179000000000000000000000000000000000000000000000000815250905060005b60058110156200020c57600a6040518060400160405280848460058110620001a857620001a7620007f2565b5b6020020151815260200160008152509080600181540180825580915050600190039060005260206000209060020201600090919091909150600082015181600001556020820151816001015550508080620002039062000821565b9150506200017b565b50505050506200086e565b6000604051905090565b600080fd5b600080fd5b600080fd5b600080fd5b6000601f19601f8301169050919050565b7f4e487b7100000000000000000000000000000000000000000000000000000000600052604160045260246000fd5b620002808262000235565b810181811067ffffffffffffffff82111715620002a257620002a162000246565b5b80604052505050565b6000620002b762000217565b9050620002c5828262000275565b919050565b600067ffffffffffffffff821115620002e857620002e762000246565b5b620002f38262000235565b9050602081019050919050565b60005b838110156200032057808201518184015260208101905062000303565b60008484015250505050565b6000620003436200033d84620002ca565b620002ab565b90508281526020810184848401111562000362576200036162000230565b5b6200036f84828562000300565b509392505050565b600082601f8301126200038f576200038e6200022b565b5b8151620003a18482602086016200032c565b91505092915050565b6000819050919050565b620003bf81620003aa565b8114620003cb57600080fd5b50565b600081519050620003df81620003b4565b92915050565b60008060006060848603121562000401576200040062000221565b5b600084015167ffffffffffffffff81111562000422576200042162000226565b5b620004308682870162000377565b93505060206200044386828701620003ce565b92505060406200045686828701620003ce565b9150509250925092565b7f4e487b7100000000000000000000000000000000000000000000000000000000600052601160045260246000fd5b60006200049c82620003aa565b9150620004a983620003aa565b9250828201905080821115620004c457620004c362000460565b5b92915050565b600081519050919050565b7f4e487b7100000000000000000000000000000000000000000000000000000000600052602260045260246000fd5b600060028204905060018216806200051d57607f821691505b602082108103620005335762000532620004d5565b5b50919050565b60008190508160005260206000209050919050565b60006020601f8301049050919050565b600082821b905092915050565b6000600883026200059d7fffffffffffffffffffffffffffffffffffffffffffffffffffffffffffffffff826200055e565b620005a986836200055e565b95508019841693508086168417925050509392505050565b6000819050919050565b6000620005ec620005e6620005e084620003aa565b620005c1565b620003aa565b9050919050565b6000819050919050565b6200060883620005cb565b620006206200061782620005f3565b8484546200056b565b825550505050565b600090565b6200063762000628565b62000644818484620005fd565b505050565b5b818110156200066c57620006606000826200062d565b6001810190506200064a565b5050565b601f821115620006bb57620006858162000539565b62000690846200054e565b81016020851015620006a0578190505b620006b8620006af856200054e565b83018262000649565b50505b505050565b600082821c905092915050565b6000620006e060001984600802620006c0565b1980831691505092915050565b6000620006fb8383620006cd565b9150826002028217905092915050565b6200071682620004ca565b67ffffffffffffffff81111562000732576200073162000246565b5b6200073e825462000504565b6200074b82828562000670565b600060209050601f8311600181146200078357600084156200076e578287015190505b6200077a8582620006ed565b865550620007ea565b601f198416620007938662000539565b60005b82811015620007bd5784890151825560018201915060208501945060208101905062000796565b86831015620007dd5784890151620007d9601f891682620006cd565b8355505b6001600288020188555050505b505050505050565b7f4e487b7100000000000000000000000000000000000000000000000000000000600052603260045260246000fd5b60006200082e82620003aa565b91507fffffffffffffffffffffffffffffffffffffffffffffffffffffffffffffffff820362000863576200086262000460565b5b600182019050919050565b611de2806200087e6000396000f3fe608060405234801561001057600080fd5b50600436106101a95760003560e01c8063713fda97116100f9578063a3ec138d11610097578063ba829d7111610071578063ba829d71146104b4578063d864e740146104d2578063ecb617d9146104f0578063ee8aeaa2146104fa576101a9565b8063a3ec138d14610437578063a69beaba14610468578063b89694c614610484576101a9565b806382041ba4116100d357806382041ba4146103bf57806385e8e7a7146103dd57806388149fb9146103fb578063886a6de114610419576101a9565b8063713fda971461035357806376fdcb70146103715780637965df391461038f576101a9565b80633477ee2e11610166578063439f5ac211610140578063439f5ac2146102cb5780634e69d560146102e95780635179fc491461030757806356e49d6114610323576101a9565b80633477ee2e146102605780633a6af7991461029157806340c443b3146102af576101a9565b806311ae9ed2146101ae578063157b0448146101cc57806317d7de7c146101ea5780632a1830031461020857806330e7a79c146102245780633197cbb614610242575b600080fd5b6101b6610518565b6040516101c39190611363565b60405180910390f35b6101d4610634565b6040516101e1919061139e565b60405180910390f35b6101f261063e565b6040516101ff91906113d2565b60405180910390f35b610222600480360381019061021d919061141e565b610672565b005b61022c61095b565b60405161023991906114ee565b60405180910390f35b61024a6109ed565b604051610257919061139e565b60405180910390f35b61027a6004803603810190610275919061153c565b6109f3565b604051610288929190611569565b60405180910390f35b610299610a27565b6040516102a6919061139e565b60405180910390f35b6102c960048036038101906102c49190611592565b610aaf565b005b6102d3610b40565b6040516102e0919061139e565b60405180910390f35b6102f1610b4a565b6040516102fe91906115da565b60405180910390f35b610321600480360381019061031c9190611621565b610ba1565b005b61033d60048036038101906103389190611621565b610d1d565b60405161034a91906115da565b60405180910390f35b61035b610dcb565b604051610368919061139e565b60405180910390f35b610379610dd1565b604051610386919061165d565b60405180910390f35b6103a960048036038101906103a4919061153c565b610dfa565b6040516103b6919061165d565b60405180910390f35b6103c7610e39565b6040516103d4919061139e565b60405180910390f35b6103e5610e3f565b6040516103f291906114ee565b60405180910390f35b610403610ecd565b604051610410919061139e565b60405180910390f35b610421610ed3565b60405161042e919061139e565b60405180910390f35b610451600480360381019061044c9190611621565b610ed9565b60405161045f929190611678565b60405180910390f35b610482600480360381019061047d9190611592565b610f17565b005b61049e60048036038101906104999190611592565b6110cd565b6040516104ab91906115da565b60405180910390f35b6104bc611136565b6040516104c9919061139e565b60405180910390f35b6104da61113c565b6040516104e7919061165d565b60405180910390f35b6104f8611160565b005b610502611269565b60405161050f919061139e565b60405180910390f35b606060008054906101000a900473ffffffffffffffffffffffffffffffffffffffff1673ffffffffffffffffffffffffffffffffffffffff163373ffffffffffffffffffffffffffffffffffffffff16146105a8576040517f08c379a000000000000000000000000000000000000000000000000000000000815260040161059f906116ed565b60405180910390fd5b600b80548060200260200160405190810160405280929190818152602001828054801561062a57602002820191906000526020600020905b8160009054906101000a900473ffffffffffffffffffffffffffffffffffffffff1673ffffffffffffffffffffffffffffffffffffffff16815260200190600101908083116105e0575b5050505050905090565b6000600454905090565b6000600a61064a610a27565b8154811061065b5761065a61170d565b5b906000526020600020906002020160000154905090565b6000600c60003373ffffffffffffffffffffffffffffffffffffffff1673ffffffffffffffffffffffffffffffffffffffff168152602001908152602001600020905060035442101580156106c957506004544211155b610708576040517f08c379a00000000000000000000000000000000000000000000000000000000081526004016106ff90611788565b60405180910390fd5b8060000160019054906101000a900460ff16610759576040517f08c379a0000000000000000000000000000000000000000000000000000000008152600401610750906117f4565b60405180910390fd5b600860003373ffffffffffffffffffffffffffffffffffffffff1673ffffffffffffffffffffffffffffffffffffffff16815260200190815260200160002060009054906101000a900460ff16156107e6576040517f08c379a00000000000000000000000000000000000000000000000000000000081526004016107dd90611860565b60405180910390fd5b6107ef836110cd565b61082e576040517f08c379a0000000000000000000000000000000000000000000000000000000008152600401610825906118cc565b60405180910390fd5b600083836040516020016108439291906118ec565b604051602081830303815290604052805190602001209050600660003373ffffffffffffffffffffffffffffffffffffffff1673ffffffffffffffffffffffffffffffffffffffff1681526020019081526020016000205481146108dc576040517f08c379a00000000000000000000000000000000000000000000000000000000081526004016108d390611987565b60405180910390fd5b6108e584610aaf565b6001600860003373ffffffffffffffffffffffffffffffffffffffff1673ffffffffffffffffffffffffffffffffffffffff16815260200190815260200160002060006101000a81548160ff02191690831515021790555060096000815480929190610950906119d6565b919050555050505050565b60606001805461096a90611a4d565b80601f016020809104026020016040519081016040528092919081815260200182805461099690611a4d565b80156109e35780601f106109b8576101008083540402835291602001916109e3565b820191906000526020600020905b8154815290600101906020018083116109c657829003601f168201915b5050505050905090565b60035481565b600a8181548110610a0357600080fd5b90600052602060002090600202016000915090508060000154908060010154905082565b6000806000905060005b600a80549050811015610aaa5781600a8281548110610a5357610a5261170d565b5b9060005260206000209060020201600101541115610a9757600a8181548110610a7f57610a7e61170d565b5b90600052602060002090600202016001015491508092505b8080610aa2906119d6565b915050610a31565b505090565b60005b600a80549050811015610b3c5781600a8281548110610ad457610ad361170d565b5b90600052602060002090600202016000015403610b29576001600a8281548110610b0157610b0061170d565b5b90600052602060002090600202016001016000828254610b219190611a7e565b925050819055505b8080610b34906119d6565b915050610ab2565b5050565b6000600354905090565b6000600c60003373ffffffffffffffffffffffffffffffffffffffff1673ffffffffffffffffffffffffffffffffffffffff16815260200190815260200160002060000160009054906101000a900460ff16905090565b60008054906101000a900473ffffffffffffffffffffffffffffffffffffffff1673ffffffffffffffffffffffffffffffffffffffff163373ffffffffffffffffffffffffffffffffffffffff1614610c2f576040517f08c379a0000000000000000000000000000000000000000000000000000000008152600401610c2690611b24565b60405180910390fd5b600c60008273ffffffffffffffffffffffffffffffffffffffff1673ffffffffffffffffffffffffffffffffffffffff16815260200190815260200160002060000160019054906101000a900460ff1615610cbf576040517f08c379a0000000000000000000000000000000000000000000000000000000008152600401610cb690611b90565b60405180910390fd5b6001600c60008373ffffffffffffffffffffffffffffffffffffffff1673ffffffffffffffffffffffffffffffffffffffff16815260200190815260200160002060000160006101000a81548160ff02191690831515021790555050565b600080600090505b600b80549050811015610dc0578273ffffffffffffffffffffffffffffffffffffffff16600b8281548110610d5d57610d5c61170d565b5b9060005260206000200160009054906101000a900473ffffffffffffffffffffffffffffffffffffffff1673ffffffffffffffffffffffffffffffffffffffff1603610dad576001915050610dc6565b8080610db8906119d6565b915050610d25565b50600090505b919050565b60075481565b60008060009054906101000a900473ffffffffffffffffffffffffffffffffffffffff16905090565b600b8181548110610e0a57600080fd5b906000526020600020016000915054906101000a900473ffffffffffffffffffffffffffffffffffffffff1681565b60095481565b60018054610e4c90611a4d565b80601f0160208091040260200160405190810160405280929190818152602001828054610e7890611a4d565b8015610ec55780601f10610e9a57610100808354040283529160200191610ec5565b820191906000526020600020905b815481529060010190602001808311610ea857829003601f168201915b505050505081565b60025481565b60055481565b600c6020528060005260406000206000915090508060000160009054906101000a900460ff16908060000160019054906101000a900460ff16905082565b6000600c60003373ffffffffffffffffffffffffffffffffffffffff1673ffffffffffffffffffffffffffffffffffffffff16815260200190815260200160002090508060000160019054906101000a900460ff1615610fac576040517f08c379a0000000000000000000000000000000000000000000000000000000008152600401610fa390611c22565b60405180910390fd5b8060000160009054906101000a900460ff16610ffd576040517f08c379a0000000000000000000000000000000000000000000000000000000008152600401610ff490611cb4565b60405180910390fd5b600354421115801561101157506002544210155b611050576040517f08c379a000000000000000000000000000000000000000000000000000000000815260040161104790611d20565b60405180910390fd5b60018160000160016101000a81548160ff02191690831515021790555081600660003373ffffffffffffffffffffffffffffffffffffffff1673ffffffffffffffffffffffffffffffffffffffff16815260200190815260200160002081905550600760008154809291906110c4906119d6565b91905055505050565b600080600090505b600a8054905081101561112b5782600a82815481106110f7576110f661170d565b5b90600052602060002090600202016000015403611118576001915050611131565b8080611123906119d6565b9150506110d5565b50600090505b919050565b60045481565b60008054906101000a900473ffffffffffffffffffffffffffffffffffffffff1681565b61116933610d1d565b156111a9576040517f08c379a00000000000000000000000000000000000000000000000000000000081526004016111a090611d8c565b60405180910390fd5b600b339080600181540180825580915050600190039060005260206000200160009091909190916101000a81548173ffffffffffffffffffffffffffffffffffffffff021916908373ffffffffffffffffffffffffffffffffffffffff1602179055506000600c60003373ffffffffffffffffffffffffffffffffffffffff1673ffffffffffffffffffffffffffffffffffffffff16815260200190815260200160002060000160006101000a81548160ff021916908315150217905550565b6000600954905090565b600081519050919050565b600082825260208201905092915050565b6000819050602082019050919050565b600073ffffffffffffffffffffffffffffffffffffffff82169050919050565b60006112ca8261129f565b9050919050565b6112da816112bf565b82525050565b60006112ec83836112d1565b60208301905092915050565b6000602082019050919050565b600061131082611273565b61131a818561127e565b93506113258361128f565b8060005b8381101561135657815161133d88826112e0565b9750611348836112f8565b925050600181019050611329565b5085935050505092915050565b6000602082019050818103600083015261137d8184611305565b905092915050565b6000819050919050565b61139881611385565b82525050565b60006020820190506113b3600083018461138f565b92915050565b6000819050919050565b6113cc816113b9565b82525050565b60006020820190506113e760008301846113c3565b92915050565b600080fd5b6113fb816113b9565b811461140657600080fd5b50565b600081359050611418816113f2565b92915050565b60008060408385031215611435576114346113ed565b5b600061144385828601611409565b925050602061145485828601611409565b9150509250929050565b600081519050919050565b600082825260208201905092915050565b60005b8381101561149857808201518184015260208101905061147d565b60008484015250505050565b6000601f19601f8301169050919050565b60006114c08261145e565b6114ca8185611469565b93506114da81856020860161147a565b6114e3816114a4565b840191505092915050565b6000602082019050818103600083015261150881846114b5565b905092915050565b61151981611385565b811461152457600080fd5b50565b60008135905061153681611510565b92915050565b600060208284031215611552576115516113ed565b5b600061156084828501611527565b91505092915050565b600060408201905061157e60008301856113c3565b61158b602083018461138f565b9392505050565b6000602082840312156115a8576115a76113ed565b5b60006115b684828501611409565b91505092915050565b60008115159050919050565b6115d4816115bf565b82525050565b60006020820190506115ef60008301846115cb565b92915050565b6115fe816112bf565b811461160957600080fd5b50565b60008135905061161b816115f5565b92915050565b600060208284031215611637576116366113ed565b5b60006116458482850161160c565b91505092915050565b611657816112bf565b82525050565b6000602082019050611672600083018461164e565b92915050565b600060408201905061168d60008301856115cb565b61169a60208301846115cb565b9392505050565b7f4f6e6c7920636f6d6d697474652063616e20766965772070656e64696e670000600082015250565b60006116d7601e83611469565b91506116e2826116a1565b602082019050919050565b60006020820190508181036000830152611706816116ca565b9050919050565b7f4e487b7100000000000000000000000000000000000000000000000000000000600052603260045260246000fd5b7f54686973206973206e6f74207468652072657665616c20706572696f64000000600082015250565b6000611772601d83611469565b915061177d8261173c565b602082019050919050565b600060208201905081810360008301526117a181611765565b9050919050565b7f566f74657220646964206e6f7420766f74650000000000000000000000000000600082015250565b60006117de601283611469565b91506117e9826117a8565b602082019050919050565b6000602082019050818103600083015261180d816117d1565b9050919050565b7f566f74652068617320616c7265616479206265656e2072657665616c65640000600082015250565b600061184a601e83611469565b915061185582611814565b602082019050919050565b600060208201905081810360008301526118798161183d565b9050919050565b7f4e6f7420612076616c69642063616e6469646174650000000000000000000000600082015250565b60006118b6601583611469565b91506118c182611880565b602082019050919050565b600060208201905081810360008301526118e5816118a9565b9050919050565b600060408201905061190160008301856113c3565b61190e60208301846113c3565b9392505050565b7f766f74652072657665616c656420646f6573206e6f74206d617463682073656360008201527f72657420766f7465000000000000000000000000000000000000000000000000602082015250565b6000611971602883611469565b915061197c82611915565b604082019050919050565b600060208201905081810360008301526119a081611964565b9050919050565b7f4e487b7100000000000000000000000000000000000000000000000000000000600052601160045260246000fd5b60006119e182611385565b91507fffffffffffffffffffffffffffffffffffffffffffffffffffffffffffffffff8203611a1357611a126119a7565b5b600182019050919050565b7f4e487b7100000000000000000000000000000000000000000000000000000000600052602260045260246000fd5b60006002820490506001821680611a6557607f821691505b602082108103611a7857611a77611a1e565b5b50919050565b6000611a8982611385565b9150611a9483611385565b9250828201905080821115611aac57611aab6119a7565b5b92915050565b7f4f6e6c7920636f6d6d69747465652063616e20617070726f766520726567697360008201527f74726174696f6e73000000000000000000000000000000000000000000000000602082015250565b6000611b0e602883611469565b9150611b1982611ab2565b604082019050919050565b60006020820190508181036000830152611b3d81611b01565b9050919050565b7f566f7465722068617320616c726561647920766f746564000000000000000000600082015250565b6000611b7a601783611469565b9150611b8582611b44565b602082019050919050565b60006020820190508181036000830152611ba981611b6d565b9050919050565b7f596f7520616c726561647920766f74656420696e207468697320656c6563746960008201527f6f6e000000000000000000000000000000000000000000000000000000000000602082015250565b6000611c0c602283611469565b9150611c1782611bb0565b604082019050919050565b60006020820190508181036000830152611c3b81611bff565b9050919050565b7f596f752068617665206e6f74206265656e20617070726f76656420746f20766f60008201527f7465000000000000000000000000000000000000000000000000000000000000602082015250565b6000611c9e602283611469565b9150611ca982611c42565b604082019050919050565b60006020820190508181036000830152611ccd81611c91565b9050919050565b7f456c656374696f6e204f76657200000000000000000000000000000000000000600082015250565b6000611d0a600d83611469565b9150611d1582611cd4565b602082019050919050565b60006020820190508181036000830152611d3981611cfd565b9050919050565b7f416c7265616479207375626d697474656420726567697374726174696f6e0000600082015250565b6000611d76601e83611469565b9150611d8182611d40565b602082019050919050565b60006020820190508181036000830152611da581611d69565b905091905056fea264697066735822122057806e315884748ba6be2cec452997e981db488274feedaf0950fe5eae672a6a64736f6c63430008110033",
  "immutableReferences": {},
  "source": "// SPDX-License-Identifier: GPL-3.0\n\npragma solidity ^0.8.0;\n\ncontract Election {\n\n    struct Candidate {\n        bytes32 name;\n        uint256 voteCount;\n    }\n\n    struct Voter { \n        bool reg;\n        bool voted;\n        // uint256 vote;\n    }\n\n    address public committee;\n    string public electionName;\n\n    uint256 public beginTime;\n    uint256 public endTime;\n    uint256 public revealTime;\n    uint256 public revealDuration;\n\n    mapping (address => bytes32) secretVotes;\n    uint public votesReceived;\n    mapping (address => bool) voteRevealed;\n    uint public votesRevealed;\n\n    Candidate[] public candidates;\n    address[] public pendings;\n    mapping(address => Voter) public voters;\n\n    // event Voted(uint256 vote);\n\n    constructor(string memory _electionName, uint256 _endTime, uint256 _revealDuration) {\n        committee = msg.sender;\n        // hard code address for debugging\n        // committee = 0x07Dce7e6B141cEDf8816dF0C22Adf4b7A83f8b8A;\n        beginTime = block.timestamp;\n        endTime = _endTime;\n        revealTime = endTime + _revealDuration;\n        electionName = _electionName;\n\n        // hard code candidates\n        bytes32[5] memory candidateNames = [bytes32(\"Roaree Lion\"), bytes32(\"Shih-Fu Chang\"), bytes32(\"Junfeng Yang\"), bytes32(\"Chef Mike\"), bytes32(\"John Jay\")];\n\n        for (uint i = 0; i < candidateNames.length; i++) {\n            candidates.push(Candidate({\n                name: candidateNames[i],\n                voteCount: 0\n            }));\n        }\n    }\n\n    function getEndTime() public view returns(uint256 t) {\n        return endTime;\n    }\n\n    function getRevealTime() public view returns(uint256 t) {\n        return revealTime;\n    }\n\n    function getElectionName() public view returns(string memory n) {\n        return electionName;\n    }\n\n    function getCommitteeAddr() public view returns(address c) {\n        return committee;\n    }\n\n    function getVotesRevealed() public view returns(uint256 v) {\n        return votesRevealed;\n    }\n\n    function alreadyRegistered(address voter) public view returns(bool ret) {\n        for (uint i = 0; i < pendings.length; i++) {\n            if (pendings[i] == voter) {\n                return true;\n            }\n        }\n        return false;\n    }\n\n    // submit registration for an election\n    // done by voter\n    function registerVoter() external {\n        require(!alreadyRegistered(msg.sender), \"Already submitted registration\");\n        pendings.push(msg.sender);\n        voters[msg.sender].reg = false;\n    }\n\n    // get voter registration status\n    function getStatus() public view returns (bool status) {\n        return voters[msg.sender].reg;\n    }\n\n    // get pending registrations\n    // only called by committee\n    function getPending() public view returns (address[] memory ps) {\n        require(msg.sender == committee, \"Only committe can view pending\");\n        return pendings;\n    }\n\n    // approve a voter registration\n    function approveRegistration(address voter) external {\n        require(msg.sender == committee, \"Only committee can approve registrations\");\n        require(!voters[voter].voted, \"Voter has already voted\");\n        voters[voter].reg = true;\n    }\n\n    // confirm choice is a registered candidate\n    function isCandidate(bytes32 candidate) public view returns (bool) {\n        for (uint i = 0; i < candidates.length; i++) {\n            if (candidates[i].name == candidate) {\n                return true;\n            }\n        }\n        return false;\n    }\n\n    // increase candidate vote count\n    function increment(bytes32 candidate) public {\n        for (uint i = 0; i < candidates.length; i++) {\n            if (candidates[i].name == candidate) {\n                candidates[i].voteCount += 1;\n            }\n        }\n    }\n\n    // submit vote during election time period\n    function vote(bytes32 _hash) external {\n        Voter storage v = voters[msg.sender];\n        require(!v.voted, \"You already voted in this election\");\n        require(v.reg, \"You have not been approved to vote\");\n        require(block.timestamp <= endTime && block.timestamp >= beginTime, \"Election Over\");\n\n        v.voted = true;\n        secretVotes[msg.sender] = _hash;\n        votesReceived++;\n    }\n\n    // reveal vote during reveal period\n    function revealVote(bytes32 _candidate, bytes32 _salt) external {\n        Voter storage v = voters[msg.sender];\n        require(block.timestamp >= endTime && block.timestamp <= revealTime, \"This is not the reveal period\");\n        require(v.voted, \"Voter did not vote\");\n        require(!voteRevealed[msg.sender], \"Vote has already been revealed\");\n        require(isCandidate(_candidate), \"Not a valid candidate\");\n\n        bytes32 voteHash = keccak256(abi.encode(_candidate, _salt));\n\n        require(voteHash == secretVotes[msg.sender], \"vote revealed does not match secret vote\");\n\n        // candidates[_candidate].voteCount += 1;\n        increment(_candidate);\n        voteRevealed[msg.sender] = true;\n        votesRevealed++;\n    }\n\n    // calculates winner\n    function calcWinner() public view\n            returns (uint256 winner_)\n    {\n        // require(block.timestamp > revealTime, \"Reveal period has not passed\");\n        uint winningVoteCount = 0;\n        for (uint c = 0; c < candidates.length; c++) {\n            if (candidates[c].voteCount > winningVoteCount) {\n                winningVoteCount = candidates[c].voteCount;\n                winner_ = c;\n            }\n        }\n    }\n\n    function getName() external view\n            returns (bytes32 winnerName_)\n    {\n        winnerName_ = candidates[calcWinner()].name;\n    }\n}",
  "sourcePath": "/Users/kimboly/dev/columbia/web3final/UniVote-KT/contracts/Election.sol",
  "compiler": {
    "name": "solc",
    "version": "0.8.17+commit.8df45f5f.Emscripten.clang"
  },
  "schemaVersion": "3.4.11",
  "updatedAt": "2023-01-26T18:39:02.844Z",
  "networkType": "ethereum",
  "devdoc": {
    "kind": "dev",
    "methods": {},
    "version": 1
  },
  "userdoc": {
    "kind": "user",
    "methods": {},
    "version": 1
  }
}